:100000000C942A000C94B4000C94B4000C94B4002A
:100010000C94B4000C94B4000C94B4000C94B40090
:100020000C94B4000C94B4000C94B4000C94B40080
:100030000C94B4000C94B4000C94B4000C94B40070
:100040000C94B4000C94B4000C94B4000C94B40060
:100050000C94B40011241FBECFE5D8E0DEBFCDBFA5
:0C0060000E9466000C943400F894FFCF5E
:10006C00672BC9F08130910569F01CF4892B39F0AC
:10007C0008958230910549F0039751F008958FEF60
:10008C008ABB08958FEF87BB08958FEF84BB0895CB
:10009C008FEF81BB08958130910561F01CF4892BA1
:1000AC0039F008958230910539F0039739F00895AD
:1000BC001ABA089517BA089514BA089511BA089582
:1000CC0061E070E080E090E00E9436000E94AA009F
:1000DC0082E00E94B0000E9480008130910521F4E2
:1000EC000E9496008BBBF7CF0297A9F781E40E9480
:0400FC00A200F1CF9E
:1001000006B607FEFDCF81B1982F987F807F80369D
:1001100039F0983A41F0903B99F782E090E00895E9
:0C01200081E090E0089582E090E00895F6
:10012C0084EC86BF06B607FEFDCF81B1887F803890
:08013C0011F483B10895089548
:1001440083B984EC86BF06B607FEFDCF81B108955E
:0C0154008FEF80B981B1836081B90895FC
:0801600082B984EC86BF08950A
:040168000C940000F3
:00000001FF
