:100000000C942A000C941A010C941A010C941A01F5
:100010000C941A010C941A010C941A010C941A01F4
:100020000C941A010C941A010C941A010C941A01E4
:100030000C941A010C941A010C941A010C941A01D4
:100040000C941A010C941A010C941A010C941A01C4
:100050000C941A0111241FBECFE5D8E0DEBFCDBF3E
:0C0060000E9408010C943400F894FFCFBB
:10006C00452BC9F181309105A9F01CF4892B39F08D
:10007C00089582309105C9F0039711F108952AB3C0
:10008C0081E090E002C0880F991F6A95E2F7822BFD
:10009C008ABB089527B381E090E002C0880F991FB6
:1000AC006A95E2F7822B87BB089524B381E090E038
:1000BC0002C0880F991F6A95E2F7822B84BB0895C2
:1000CC0021B381E090E002C0880F991F6A95E2F796
:1000DC00822B81BB089581309105B1F01CF4892BE2
:1000EC0039F0089582309105D9F0039729F10895DC
:1000FC002AB381E090E002C0880F991F6A95E2F75D
:10010C00809582238ABB089527B381E090E002C0DA
:10011C00880F991F6A95E2F78095822387BB089513
:10012C0024B381E090E002C0880F991F6A95E2F732
:10013C008095822384BB089521B381E090E002C0B6
:10014C00880F991F6A95E2F78095822381BB0895E9
:10015C00672BC9F08130910569F01CF4892B39F0BB
:10016C0008958230910549F0039751F008958FEF6F
:10017C008ABB08958FEF87BB08958FEF84BB0895DA
:10018C008FEF81BB08958130910561F01CF4892BB0
:10019C0039F008958230910539F0039739F00895BC
:1001AC001ABA089517BA089514BA089511BA089591
:1001BC000097F1F0019729F541E050E064E070E020
:1001CC0081E090E00E94360041E050E065E070E094
:1001DC0081E090E00E94360041E050E067E070E082
:1001EC0081E090E00E9436008DB180658DB9089554
:1001FC0041E050E066E070E081E090E00E94360063
:04020C006E9A089549
:1002100080E090E00E94DE0061E070E080E090E02D
:0C0220000E94AE000E9416018BBBFCCFB8
:08022C00779BFECF8FB108950E
:040234000C94000026
:00000001FF
