:100000000C942A000C9467000C9467000C94670011
:100010000C9467000C9467000C9467000C946700C4
:100020000C9467000C9467000C9467000C946700B4
:100030000C9467000C9467000C9467000C946700A4
:100040000C9467000C9467000C9467000C94670094
:100050000C94670011241FBECFE5D8E0DEBFCDBFF2
:0C0060000E9436000C943400F894FFCF8E
:10006C000E946B000E9469000E945E000E94630067
:10007C0081E090E00E94580080E090E00E944C00EB
:0C008C00892B11F0AA9AF8CFAA98F6CFA1
:1000980026B330E0A90102C0559547958A95E2F745
:0800A800CA0181709927089537
:0C00B000892B11F0DA9A0895DA9808956F
:0A00BC0084B3846884BB8B9A089516
:0800C600B8988E988A980895FD
:0400CE000C9400008E
:0400D200D29A089521
:0400D600D39A08951C
:00000001FF
