:100000000C942A000C949F000C9406010C94060199
:100010000C9406010C9406010C9406010C94060144
:100020000C9406010C9406010C9406010C94060134
:100030000C9406010C9406010C9406010C94060124
:100040000C9406010C9406010C9406010C94060114
:100050000C94060111241FBECFE5D8E0DEBFCDBF52
:0C0060000E94C7000C943400F894FFCFFD
:10006C0081309105A9F01CF4892B39F00895823068
:10007C009105C9F0039711F108952BB381E090E03D
:10008C0002C0880F991F6A95E2F782278BBB0895EF
:10009C0028B381E090E002C0880F991F6A95E2F7BF
:1000AC00822788BB089525B381E090E002C0880FB9
:1000BC00991F6A95E2F7822785BB089522B381E0E8
:1000CC0090E002C0880F991F6A95E2F7822782BBE5
:0200DC00089585
:1000DE00672BC9F08130910569F01CF4892B39F03A
:1000EE0008958230910549F0039751F008958FEFEE
:1000FE008ABB08958FEF87BB08958FEF84BB089559
:10010E008FEF81BB08958130910561F01CF4892B2E
:10011E0039F008958230910539F0039739F008953A
:10012E001ABA089517BA089514BA089511BA08950F
:10013E001F920F920FB60F9211242F933F934F934E
:10014E005F936F937F938F939F93AF93BF93EF9331
:10015E00FF9362E070E082E090E00E943600FF9133
:10016E00EF91BF91AF919F918F917F916F915F9121
:10017E004F913F912F910F900FBE0F901F9018959A
:10018E000E94010161E070E080E090E00E946F004B
:10019E0085B7826085BF8BB780648BBF789480E013
:1001AE0090E00E94E4002FEF89E698E12150804014
:0A01BE009040E1F700C00000F2CF0E
:1001C8008130910571F01CF4892B39F00895823043
:1001D800910559F0039769F008958BB380958BBB0F
:1001E800089588B3809588BB089585B3809585BBAD
:0A01F800089582B3809582BB08953C
:0A02020084B3846884BB8B9A0895CE
:04020C000C9400004E
:00000001FF
