:100000000C942A000C9491000C9491000C94910093
:100010000C9491000C9491000C9491000C9491001C
:100020000C9491000C9491000C9491000C9491000C
:100030000C9491000C9491000C9491000C949100FC
:100040000C9491000C9491000C9491000C949100EC
:100050000C94910011241FBECFE5D8E0DEBFCDBFC8
:0C0060000E9436000C943400F894FFCF8E
:10006C000E9485002FEF87EA91E621508040904056
:10007C00E1F700C00000C0E0D0E082E00E945B002D
:10008C00892B49F08E010F5F1F4F8C2F0E9475003A
:10009C000E948B00E8012FEF89E698E12150804007
:0A00AC009040E1F700C00000E8CF2B
:1000B60094EA96BF06B607FEFDCF91B1987F9830B9
:1000C60059F483B984E886BF06B607FEFDCF81B131
:1000D600887F883121F0089580E090E0089581E0DE
:0400E60090E0089509
:1000EA0083B984E886BF06B607FEFDCF91B1987F33
:1000FA0021E030E0983211F020E030E0C9010895A3
:0C010A008FEF80B981B1836081B9089546
:0C01160084E986BF06B604FCFDCF089506
:040122000C94000039
:00000001FF
