:100000000C942E000C9436020C9436020C9436029A
:100010000C9436020C9436020C9436020C94360280
:100020000C9436020C9436020C9436020C94360270
:100030000C9436020C9436020C9436020C94360260
:100040000C9436020C9436020C9436020C94360250
:100050000C943602006000660004700011241FBE7C
:10006000CFE5D8E0DEBFCDBFE4E5F0E040E017C06B
:10007000B591A59135912591059107FD0CC09591FC
:100080008591EF01F92FE82F05900D92A217B30784
:10009000D9F7FE0104C01D92A217B307E1F7EB35B3
:1000A000F40731F70E94F8010C945600F894FFCF42
:1000B000452BC9F181309105A9F01CF4892B39F049
:1000C000089582309105C9F0039711F108952AB37C
:1000D00081E090E002C0880F991F6A95E2F7822BB9
:1000E0008ABB089527B381E090E002C0880F991F72
:1000F0006A95E2F7822B87BB089524B381E090E0F4
:1001000002C0880F991F6A95E2F7822B84BB08957D
:1001100021B381E090E002C0880F991F6A95E2F751
:10012000822B81BB089581309105B1F01CF4892B9D
:1001300039F0089582309105D9F0039729F1089597
:100140002AB381E090E002C0880F991F6A95E2F718
:10015000809582238ABB089527B381E090E002C096
:10016000880F991F6A95E2F78095822387BB0895CF
:1001700024B381E090E002C0880F991F6A95E2F7EE
:100180008095822384BB089521B381E090E002C072
:10019000880F991F6A95E2F78095822381BB0895A5
:1001A000452BC9F181309105A9F01CF4892B39F058
:1001B000089582309105C9F0039711F108952BB38A
:1001C00081E090E002C0880F991F6A95E2F7822BC8
:1001D0008BBB089528B381E090E002C0880F991F7F
:1001E0006A95E2F7822B88BB089525B381E090E001
:1001F00002C0880F991F6A95E2F7822B85BB08958C
:1002000022B381E090E002C0880F991F6A95E2F75F
:10021000822B82BB089581309105B1F01CF4892BAB
:1002200039F0089582309105D9F0039729F10895A6
:100230002BB381E090E002C0880F991F6A95E2F726
:10024000809582238BBB089528B381E090E002C0A3
:10025000880F991F6A95E2F78095822388BB0895DD
:1002600025B381E090E002C0880F991F6A95E2F7FC
:100270008095822385BB089522B381E090E002C07F
:10028000880F991F6A95E2F78095822382BB0895B3
:100290008AB3806F8ABB41E050E061E070E081E0AA
:1002A00090E00E94580041E050E062E070E081E0A0
:1002B00090E00E94580041E050E063E070E081E08F
:1002C00090E00E94580040E050E062E070E081E081
:1002D00090E00E94D0000E942C0282E00E948501E2
:1002E00088E20E9485018CE00E94850186E00E94E0
:1002F00085010E942C022FEF80E792E02150804080
:0A0300009040E1F700C000000895EE
:10030A00CF93C82F40E050E061E070E081E090E0D8
:10031A000E94D0008BB38F709C2F907F892B8BBB50
:10032A000E94E1012FEF30E782E021503040804007
:10033A00E1F700C000008BB3282F2F7030E1C39F74
:10034A00C0011124822B8BBB0E94E1018FEF90E741
:10035A0022E0815090402040E1F700C00000CF9198
:02036A000895F4
:10036C00CF93C82F41E050E061E070E081E090E075
:10037C000E94D0008BB38F709C2F907F892B8BBBEE
:10038C000E94E1018FE99FE00197F1F700C00000A6
:10039C008BB3282F2F7030E1C39FC0011124822B07
:1003AC008BBB0E94E1018FE99FE00197F1F700C040
:0603BC000000CF9108953E
:1003C20041E050E063E070E081E090E00E94D00004
:1003D2008FE99FE00197F1F700C0000040E050E094
:0E03E20063E070E081E090E00E94D00008959A
:1003F0000E9448012FEF81EE94E021508040904010
:10040000E1F700C0000065E070E081E090E00E944C
:0C0410001D0280E690E00E940E02FFCF6B
:10041C00CF93DF93EC018881882331F021960E94E1
:0E042C00B60189918111FBCFDF91CF91089528
:10043A00009719F0019731F00895862F80680E947D
:0E044A0085010895862F806C0E94850108951B
:1004580081E00E9485018FE19EE40197F1F700C0D9
:0404680000000895F3
:04046C000C940000EC
:0604700048656C6C6F0092
:00000001FF
