:100000000C942A000C94E0010C94E0010C94E001A3
:100010000C94E0010C94E0010C94E0010C94E001DC
:100020000C94E0010C94E0010C94E0010C94E001CC
:100030000C94E0010C94E0010C94E0010C94E001BC
:100040000C94E0010C94E0010C94E0010C94E001AC
:100050000C94E00111241FBECFE5D8E0DEBFCDBF78
:0C0060000E94C2010C943400F894FFCF01
:10006C00452BC9F181309105A9F01CF4892B39F08D
:10007C00089582309105C9F0039711F108952AB3C0
:10008C0081E090E002C0880F991F6A95E2F7822BFD
:10009C008ABB089527B381E090E002C0880F991FB6
:1000AC006A95E2F7822B87BB089524B381E090E038
:1000BC0002C0880F991F6A95E2F7822B84BB0895C2
:1000CC0021B381E090E002C0880F991F6A95E2F796
:1000DC00822B81BB089581309105B1F01CF4892BE2
:1000EC0039F0089582309105D9F0039729F10895DC
:1000FC002AB381E090E002C0880F991F6A95E2F75D
:10010C00809582238ABB089527B381E090E002C0DA
:10011C00880F991F6A95E2F78095822387BB089513
:10012C0024B381E090E002C0880F991F6A95E2F732
:10013C008095822384BB089521B381E090E002C0B6
:10014C00880F991F6A95E2F78095822381BB0895E9
:10015C00452BC9F181309105A9F01CF4892B39F09C
:10016C00089582309105C9F0039711F108952BB3CE
:10017C0081E090E002C0880F991F6A95E2F7822B0C
:10018C008BBB089528B381E090E002C0880F991FC3
:10019C006A95E2F7822B88BB089525B381E090E045
:1001AC0002C0880F991F6A95E2F7822B85BB0895D0
:1001BC0022B381E090E002C0880F991F6A95E2F7A4
:1001CC00822B82BB089581309105B1F01CF4892BF0
:1001DC0039F0089582309105D9F0039729F10895EB
:1001EC002BB381E090E002C0880F991F6A95E2F76B
:1001FC00809582238BBB089528B381E090E002C0E8
:10020C00880F991F6A95E2F78095822388BB089521
:10021C0025B381E090E002C0880F991F6A95E2F740
:10022C008095822385BB089522B381E090E002C0C3
:10023C00880F991F6A95E2F78095822382BB0895F7
:10024C00892B09F141E050E065E070E082E090E03C
:10025C000E94360041E050E066E070E082E090E001
:10026C000E94360041E050E065E070E083E090E0F1
:10027C000E94360041E050E065E070E083E090E0E1
:10028C000E94AE00089541E050E063E070E082E02F
:10029C0090E00E94360041E050E064E070E082E0C3
:1002AC0090E00E94360041E050E064E070E083E0B2
:1002BC0090E00E94360041E050E064E070E083E0A2
:0802CC0090E00E94AE000895CD
:1002D400892BC9F040E050E065E070E082E090E0F6
:1002E4000E94AE0040E050E066E070E082E090E002
:1002F4000E94AE0040E050E065E070E083E090E0F2
:100304000E94AE00089540E050E063E070E082E0B7
:1003140090E00E94AE0040E050E064E070E082E0D3
:1003240090E00E94AE0040E050E064E070E083E0C2
:0803340090E00E94AE00089564
:10033C00892B89F040E050E065E070E082E090E0CD
:10034C000E94AE0041E050E066E070E082E090E098
:10035C000E94AE00089540E050E063E070E082E05F
:10036C0090E00E94AE0041E050E064E070E082E07A
:08037C0090E00E94AE0008951C
:1003840080E090E00E94260181E090E00E94260136
:1003940080E090E00E949E0181E090E00E949E0136
:1003A4002FEF83E294EF215080409040E1F700C0AA
:0C03B400000080E090E00E946A01FFCF92
:0403C0000C94000099
:00000001FF
