:100000000C942D000C9472010C9472010C947201EA
:100010000C9472010C9472010C9472010C94720194
:100020000C9472010C9472010C9472010C94720184
:100030000C9472010C9472010C9472010C94720174
:100040000C9472010C9472010C9472010C94720164
:100050000C94720100600062800011241FBECFE585
:10006000D8E0DEBFCDBFE4E5F0E040E017C0B591D9
:10007000A59135912591059107FD0CC0959185912C
:10008000EF01F92FE82F05900D92A217B307D9F7CA
:10009000FE0104C01D92A217B307E1F7E935F4078A
:0E00A00031F70E94CF000C945500F894FFCF6A
:1000AE00452BC9F181309105A9F01CF4892B39F04B
:1000BE00089582309105C9F0039711F108952AB37E
:1000CE0081E090E002C0880F991F6A95E2F7822BBB
:1000DE008ABB089527B381E090E002C0880F991F74
:1000EE006A95E2F7822B87BB089524B381E090E0F6
:1000FE0002C0880F991F6A95E2F7822B84BB089580
:10010E0021B381E090E002C0880F991F6A95E2F753
:10011E00822B81BB089581309105B1F01CF4892B9F
:10012E0039F0089582309105D9F0039729F1089599
:10013E002AB381E090E002C0880F991F6A95E2F71A
:10014E00809582238ABB089527B381E090E002C098
:10015E00880F991F6A95E2F78095822387BB0895D1
:10016E0024B381E090E002C0880F991F6A95E2F7F0
:10017E008095822384BB089521B381E090E002C074
:10018E00880F991F6A95E2F78095822381BB0895A7
:10019E0082E090E00E944B0165E070E080E490E028
:1001AE000E94650184E60E94740160E070E082E0C6
:1001BE0090E00E941301892B99F08091600090913C
:1001CE0061000A9690936100809360008CBF2FEFC0
:1001DE0089E698E1215080409040E1F700C0000090
:1001EE0061E070E082E090E00E941301892BE9F259
:1001FE0080916000909161000A97909361008093C6
:10020E0060008CBF2FEF89E698E12150804090402E
:08021E00E1F700C00000C9CFA8
:1002260081309105A1F01CF4892B39F02EC0823063
:100236009105B9F00397F9F028C089B390E002C0A0
:10024600959587956A95E2F781709927089586B303
:1002560090E002C0959587956A95E2F78170992797
:10026600089583B390E002C0959587956A95E2F765
:1002760081709927089580B390E002C0959587957F
:100286006A95E2F781709927089580E090E00895D5
:10029600CF93DF93EC0141E050E063E070E081E052
:1002A60090E00E94570083B78F7C83BF83B7C295C7
:1002B600D295D07FDC27C07FDC27C82BC3BFDF9158
:0402C600CF91089537
:1002CA0093B7977B93BF93B7987F93BF93B7892BC5
:0A02DA0083BF83B7682B63BF08954C
:0402E4000C94000076
:0402E8008CBF08952A
:00000001FF
