:100000000C942A000C9471000C9471000C947100F3
:100010000C9471000C9471000C9471000C9471009C
:100020000C9471000C9471000C9471000C9471008C
:100030000C9471000C9471000C9471000C9471007C
:100040000C9471000C9471000C9471000C9471006C
:100050000C94710011241FBECFE5D8E0DEBFCDBFE8
:0C0060000E9436000C943400F894FFCF8E
:10006C0081E090E00E94580060E070E080E00E9427
:10007C0066002FEF83ED90E3215080409040E1F734
:10008C0000C0000080E0C1E0C80F0E946D002FEF9F
:10009C0089E698E1215080409040E1F700C00000D3
:0400AC008C2FF1CFD5
:1000B000009749F0019749F487B3806B87BB8DB1F6
:0C00C00080658DB90895BE9A6E9A08956F
:0E00CC009DB1892B8DB9672B09F0709A0895AC
:0800DA008FB9779BFECF08955A
:0400E2000C9400007A
:00000001FF
