:100000000C942A000C9405010C9405010C94050134
:100010000C9405010C9405010C9405010C94050148
:100020000C9405010C9405010C9405010C94050138
:100030000C9405010C9405010C9405010C94050128
:100040000C9405010C9405010C9405010C94050118
:100050000C94050111241FBECFE5D8E0DEBFCDBF53
:0C0060000E94E1000C943400F894FFCFE3
:10006C00452BC9F181309105A9F01CF4892B39F08D
:10007C00089582309105C9F0039711F108952AB3C0
:10008C0081E090E002C0880F991F6A95E2F7822BFD
:10009C008ABB089527B381E090E002C0880F991FB6
:1000AC006A95E2F7822B87BB089524B381E090E038
:1000BC0002C0880F991F6A95E2F7822B84BB0895C2
:1000CC0021B381E090E002C0880F991F6A95E2F796
:1000DC00822B81BB089581309105B1F01CF4892BE2
:1000EC0039F0089582309105D9F0039729F10895DC
:1000FC002AB381E090E002C0880F991F6A95E2F75D
:10010C00809582238ABB089527B381E090E002C0DA
:10011C00880F991F6A95E2F78095822387BB089513
:10012C0024B381E090E002C0880F991F6A95E2F732
:10013C008095822384BB089521B381E090E002C0B6
:10014C00880F991F6A95E2F78095822381BB0895E9
:10015C00009739F1019771F541E050E064E070E0EF
:10016C0081E090E00E94360041E050E065E070E0F4
:10017C0081E090E00E94360041E050E067E070E0E2
:10018C0081E090E00E9436002FEF80E792E0215052
:10019C0080409040E1F700C000008DB180658DB9C2
:1001AC00089541E050E066E070E081E090E00E944C
:0601BC0036006E9A089562
:1001C20081E090E00E94AE0060E070E080E00E947A
:1001D200FA0080E0C1E0C80F0E9401012FEF89E61A
:1001E20098E1215080409040E1F700C000008C2F40
:0201F200F1CF4B
:0E01F4009DB1892B8DB9672B09F0709A089583
:080202008FB9779BFECF089530
:04020A000C94000050
:00000001FF
