:100000000C942A000C9486020C9486020C948602AE
:100010000C9486020C9486020C9486020C94860240
:100020000C9486020C9486020C9486020C94860230
:100030000C9486020C9486020C9486020C94860220
:100040000C9486020C9486020C9486020C94860210
:100050000C94860211241FBECFE5D8E0DEBFCDBFD1
:0C0060000E94C9010C943400F894FFCFFA
:10006C00452BC9F181309105A9F01CF4892B39F08D
:10007C00089582309105C9F0039711F108952AB3C0
:10008C0081E090E002C0880F991F6A95E2F7822BFD
:10009C008ABB089527B381E090E002C0880F991FB6
:1000AC006A95E2F7822B87BB089524B381E090E038
:1000BC0002C0880F991F6A95E2F7822B84BB0895C2
:1000CC0021B381E090E002C0880F991F6A95E2F796
:1000DC00822B81BB089581309105B1F01CF4892BE2
:1000EC0039F0089582309105D9F0039729F10895DC
:1000FC002AB381E090E002C0880F991F6A95E2F75D
:10010C00809582238ABB089527B381E090E002C0DA
:10011C00880F991F6A95E2F78095822387BB089513
:10012C0024B381E090E002C0880F991F6A95E2F732
:10013C008095822384BB089521B381E090E002C0B6
:10014C00880F991F6A95E2F78095822381BB0895E9
:10015C00452BC9F181309105A9F01CF4892B39F09C
:10016C00089582309105C9F0039711F108952BB3CE
:10017C0081E090E002C0880F991F6A95E2F7822B0C
:10018C008BBB089528B381E090E002C0880F991FC3
:10019C006A95E2F7822B88BB089525B381E090E045
:1001AC0002C0880F991F6A95E2F7822B85BB0895D0
:1001BC0022B381E090E002C0880F991F6A95E2F7A4
:1001CC00822B82BB089581309105B1F01CF4892BF0
:1001DC0039F0089582309105D9F0039729F10895EB
:1001EC002BB381E090E002C0880F991F6A95E2F76B
:1001FC00809582238BBB089528B381E090E002C0E8
:10020C00880F991F6A95E2F78095822388BB089521
:10021C0025B381E090E002C0880F991F6A95E2F740
:10022C008095822385BB089522B381E090E002C0C3
:10023C00880F991F6A95E2F78095822382BB0895F7
:10024C0061E070E083E090E00E947C0141E050E0CE
:10025C0060E070E082E090E00E94360041E050E007
:10026C0061E070E082E090E00E94360041E050E0F6
:10027C0062E070E082E090E00E94360040E050E0E6
:10028C0061E070E082E090E00E94AE008FE39CE9B8
:10029C000197F1F700C000000E947C0288E30E94E5
:1002AC003E028FE39CE90197F1F700C000008CE05F
:1002BC000E943E028FE39CE90197F1F700C0000019
:1002CC0086E00E943E028FE39CE90197F1F700C0A3
:1002DC00000082E00E943E029FEF20E782E09150F6
:0C02EC0020408040E1F700C000000895B1
:1002F800672BC9F08130910569F01CF4892B39F01E
:1003080008958230910549F0039751F008958FEFD1
:100318008ABB08958FEF87BB08958FEF84BB08953C
:100328008FEF81BB08958130910561F01CF4892B12
:1003380039F008958230910539F0039739F008951E
:100348001ABA089517BA089514BA089511BA0895F3
:10035800CF93DF93CDB7DEB72B970FB6F894DEBFF8
:100368000FBECDBF4AE0BE016F5F7F4F0E94710292
:10037800CE0101960E9462022B960FB6F894DEBF5A
:0A0388000FBECDBFDF91CF910895A5
:100392000E9426012FEF80E792E02150804090409A
:1003A200E1F700C000000E947C0284E690E00E9417
:1003B200AC012FEF89E698E1215080409040E1F7AF
:0603C20000C00000F0CFB6
:1003C800BB27FB015527AA27880F991FAA1FA41727
:1003D80010F0A41B83955051B9F7A05DAA3308F01B
:1003E800A95DA193009779F7B111B1931192CB014F
:0403F8000C9452020D
:1003FC0041E050E062E070E082E090E00E94AE00EC
:10040C008FE99FE00197F1F700C0000040E050E059
:0E041C0062E070E082E090E00E94AE00089581
:10042A008130910561F01CF4892B39F008958230EE
:10043A00910539F0039739F008956BBB089568BBAD
:0A044A00089565BB089562BB089594
:10045400CF93C82F41E050E060E070E082E090E08C
:100464000E94AE006C2F70E083E090E00E941502C1
:080474000E94FE01CF910895E2
:10047C00CF93C82F40E050E060E070E082E090E065
:10048C000E94AE006C2F70E083E090E00E94150299
:08049C000E94FE01CF910895BA
:1004A400DC01FC01672F71917723E1F7329704C0D7
:1004B4007C916D9370836291AE17BF07C8F3089562
:1004C400CF93DF93EC018881882331F021960E9439
:0E04D4002A0289918111FBCFDF91CF9108950B
:1004E200BB274A3031F4992322F4BDE290958195DD
:0604F2009F4F0C94E50190
:1004F80081E00E943E028FE99FE00197F1F700C07A
:040508000000089552
:04050C000C9400004B
:00000001FF
