:100000000C942A000C94CA000C94CA000C94CA00E8
:100010000C94CA000C94CA000C94CA000C94CA0038
:100020000C94CA000C94CA000C94CA000C94CA0028
:100030000C94CA000C94CA000C94CA000C94CA0018
:100040000C94CA000C94CA000C94CA000C94CA0008
:100050000C94CA0011241FBECFE5D8E0DEBFCDBF8F
:0C0060000E946E000C943400F894FFCF56
:10006C0081309105A1F01CF4892B39F02EC082301F
:10007C009105B9F00397F9F028C089B390E002C05C
:10008C00959587956A95E2F781709927089586B3BF
:10009C0090E002C0959587956A95E2F78170992753
:1000AC00089583B390E002C0959587956A95E2F721
:1000BC0081709927089580B390E002C0959587953B
:1000CC006A95E2F781709927089580E090E0089591
:1000DC000E94CE000E94CC000E94C1000E94C6006B
:1000EC0060E070E081E090E00E943600892B39F0EE
:1000FC0061E070E082E090E00E949D0006C060E04C
:10010C0070E082E090E00E949D0066E070E083E089
:10011C0090E00E943600892B29F081E090E00E944B
:0E012C00BB00DECF80E090E00E94BB00D9CF88
:10013A00672B71F08330910549F08730910521F0E2
:10014A00029799F4AA9A0895AF9A0895939A0895EE
:10015A008330910549F08730910521F0029729F4FF
:0C016A00AA980895AF98089593980895FE
:0C017600892B11F0DA9A0895DA980895A8
:0A01820084B3846884BB8B9A08954F
:08018C00B8988E988A98089536
:040194000C940000C7
:04019800D29A08955A
:04019C00D39A089555
:00000001FF
