:100000000C942A000C9455020C9455020C94550241
:100010000C9455020C9455020C9455020C94550204
:100020000C9455020C9455020C9455020C945502F4
:100030000C9455020C9455020C9455020C945502E4
:100040000C9455020C9455020C9455020C945502D4
:100050000C94550211241FBECFE5D8E0DEBFCDBF02
:0C0060000E94D3010C943400F894FFCFF0
:10006C0010C00E94360258F00E942F0240F029F472
:10007C005F3F29F00C94440251110C943E020C94F5
:10008C0052020E94F50168F39923B1F3552391F3C1
:10009C00951B550BBB27AA2762177307840738F0EB
:1000AC009F5F5F4F220F331F441FAA1FA9F335D048
:1000BC000E2E3AF0E0E832D091505040E695001CFC
:1000CC00CAF72BD0FE2F29D0660F771F881FBB1FB6
:1000DC00261737074807AB07B0E809F0BB0B802D94
:1000EC00BF01FF2793585F4F3AF09E3F510578F0C0
:1000FC000C9444020C943E025F3FE4F3983ED4F31C
:10010C00869577956795B795F7959F5FC9F7880F93
:10011C00911D9695879597F90895E1E0660F771FE5
:10012C00881FBB1F621773078407BA0720F0621B76
:0E013C00730B840BBA0BEE1F88F7E095089545
:10014A0011C00E942F0238F00E94360220F039F4C2
:10015A009F3F19F426F40C9452020EF4E095E7FB43
:10016A000C944402E92F0E94F50158F3BA1762076A
:10017A0073078407950720F079F4A6F50C943D02DD
:10018A000EF4E0950B2EBA2FA02D0B01B9019001A8
:10019A000C01CA01A0011124FF27591B99F0593FEC
:1001AA0050F4503E68F11A16F040A22F232F342F34
:1001BA004427585FF3CF469537952795A795F04082
:1001CA005395C9F77EF41F16BA0B620B730B840B97
:1001DA00BAF09150A1F0FF0FBB1F661F771F881F4F
:1001EA00C2F70EC0BA0F621F731F841F48F48795A7
:1001FA0077956795B795F7959E3F08F0B0CF939599
:0E020A00880F08F09927EE0F979587950895B5
:10021800E89409C097FB3EF4909580957095619598
:100228007F4F8F4F9F4F9923A9F0F92F96E9BB274E
:100238009395F695879577956795B795F111F8CFCA
:10024800FAF4BB0F11F460FF1BC06F5F7F4F8F4F35
:100258009F4F16C0882311F096E911C0772321F02B
:100268009EE8872F762F05C0662371F096E8862FC3
:1002780070E060E02AF09A95660F771F881FDAF71A
:0A028800880F9695879597F9089561
:10029200672BC9F08130910569F01CF4892B39F084
:1002A20008958230910549F0039751F008958FEF38
:1002B2008ABB08958FEF87BB08958FEF84BB0895A3
:1002C2008FEF81BB08958130910561F01CF4892B79
:1002D20039F008958230910539F0039739F0089585
:1002E2001ABA089517BA089514BA089511BA08955A
:1002F2000E94FD0188F09F5798F0B92F9927B751B6
:10030200B0F0E1F0660F771F881F991F1AF0BA95B7
:10031200C9F714C0B13091F00E943D02B1E00895D6
:100322000C943D02672F782F8827B85F39F0B93FC8
:10033200CCF3869577956795B395D9F73EF490956A
:0E0342008095709561957F4F8F4F9F4F089566
:100350009B016AB122953295307F3227207F322768
:10036000262B2AB92AB1440F551F440F551F440F9D
:10037000551F422B4AB9BC01990F880B990B0E945B
:100380000E019B01AC0160E074E284E799E40E94F5
:100390004E0220E030E040E85FE30E9428020E9425
:0603A000790169B908951E
:1003A60041E050E061E070E080E895E20E94A8013B
:1003B60061E070E080E090E00E944901CFEF0E948A
:1003C6004A028E3411F4CBBB03C0863409F41BBA3F
:1003D6002FEF89E698E1215080409040E1F700C078
:0403E6000000EDCF57
:1003EA0057FD9058440F551F59F05F3F71F04795DC
:1003FA00880F97FB991F61F09F3F79F087950895C1
:10040A00121613061406551FF2CF4695F1DF08C0DF
:10041A00161617061806991FF1CF869571056105FC
:04042A000894089595
:10042E00092E0394000C11F4882352F0BB0F40F4F4
:10043E00BF2B11F460FF04C06F5F7F4F8F4F9F4F34
:02044E0008950F
:0E0450005058BB27AA270E94A5000C94170243
:0E045E0000240A9416161706180609060895BB
:0E046C0000240A9412161306140605060895BD
:0E047A00E894BB2766277727CB0197F90895F2
:0C04880097F99F6780E870E060E008953D
:080494005F9BFECF8CB10895BF
:08049C000E9436000C941702C7
:0604A4009FEF80EC0895BB
:0404AA000C940000AE
:00000001FF
