:100000000C942A000C94FF030C94FF030C94FF0340
:100010000C94FF030C94FF030C94FF030C94FF0358
:100020000C94FF030C94FF030C94FF030C94FF0348
:100030000C94FF030C94FF030C94FF030C94FF0338
:100040000C9490010C94FF030C94FF030C94FF0399
:100050000C94FF0311241FBECFE5D8E0DEBFCDBF57
:0C0060000E9444030C943400F894FFCF7D
:10006C00452BC9F181309105A9F01CF4892B39F08D
:10007C00089582309105C9F0039711F108952AB3C0
:10008C0081E090E002C0880F991F6A95E2F7822BFD
:10009C008ABB089527B381E090E002C0880F991FB6
:1000AC006A95E2F7822B87BB089524B381E090E038
:1000BC0002C0880F991F6A95E2F7822B84BB0895C2
:1000CC0021B381E090E002C0880F991F6A95E2F796
:1000DC00822B81BB089581309105B1F01CF4892BE2
:1000EC0039F0089582309105D9F0039729F10895DC
:1000FC002AB381E090E002C0880F991F6A95E2F75D
:10010C00809582238ABB089527B381E090E002C0DA
:10011C00880F991F6A95E2F78095822387BB089513
:10012C0024B381E090E002C0880F991F6A95E2F732
:10013C008095822384BB089521B381E090E002C0B6
:10014C00880F991F6A95E2F78095822381BB0895E9
:10015C00452BC9F181309105A9F01CF4892B39F09C
:10016C00089582309105C9F0039711F108952BB3CE
:10017C0081E090E002C0880F991F6A95E2F7822B0C
:10018C008BBB089528B381E090E002C0880F991FC3
:10019C006A95E2F7822B88BB089525B381E090E045
:1001AC0002C0880F991F6A95E2F7822B85BB0895D0
:1001BC0022B381E090E002C0880F991F6A95E2F7A4
:1001CC00822B82BB089581309105B1F01CF4892BF0
:1001DC0039F0089582309105D9F0039729F10895EB
:1001EC002BB381E090E002C0880F991F6A95E2F76B
:1001FC00809582238BBB089528B381E090E002C0E8
:10020C00880F991F6A95E2F78095822388BB089521
:10021C0025B381E090E002C0880F991F6A95E2F740
:10022C008095822385BB089522B381E090E002C0C3
:10023C00880F991F6A95E2F78095822382BB0895F7
:10024C000FC00E94DF0338F00E94E60320F09523D4
:10025C0011F00C94ED030C94FC0311240C94D903B1
:10026C000E94EB0270F3959FC1F3950F50E0551F60
:10027C00629FF001729FBB27F00DB11D639FAA27EF
:10028C00F00DB11DAA1F649F6627B00DA11D661F3E
:10029C00829F2227B00DA11D621F739FB00DA11D5F
:1002AC00621F839FA00D611D221F749F3327A00D19
:1002BC00611D231F849F600D211D822F762F6A2FB5
:1002CC0011249F5750409AF0F1F088234AF0EE0F1A
:1002DC00FF1FBB1F661F771F881F91505040A9F747
:1002EC009E3F510580F00C94ED030C94D9035F3FB5
:1002FC00E4F3983ED4F3869577956795B795F79583
:10030C00E7959F5FC1F7FE2B880F911D96958795FA
:04031C0097F90895B0
:100320001F920F920FB60F9211242F933F934F936A
:100330005F936F937F938F939F93AF93BF93EF934D
:10034000FF93CF93DF9300D000D0CDB7DEB780E22C
:100350009DE69A83898386E590E09C838B830E9447
:10036000F303BC01990F880B990B0E9425022AE127
:1003700037E64CE950E40E94F8030E94D103CB0118
:100380000E940D03CE0101960E94AD032FEF89E676
:1003900098E1215080409040E1F700C000000F90AC
:1003A0000F900F900F90DF91CF91FF91EF91BF9140
:1003B000AF919F918F917F916F915F914F913F91FD
:0C03C0002F910F900FBE0F901F9018950A
:1003CC008AB3806F8ABB41E050E061E070E081E06D
:1003DC0090E00E94360041E050E062E070E081E085
:1003EC0090E00E94360041E050E063E070E081E074
:1003FC0090E00E94360040E050E062E070E081E066
:10040C0090E00E94AE000E94C70382E00E9460024E
:10041C0088E20E9460028CE00E94600286E00E94EA
:10042C0060020E94C7032FEF80E792E021508040CA
:0A043C009040E1F700C000000895B1
:10044600E89409C097FB3EF4909580957095619568
:100456007F4F8F4F9F4F9923A9F0F92F96E9BB271E
:100466009395F695879577956795B795F111F8CF9A
:10047600FAF4BB0F11F460FF1BC06F5F7F4F8F4F05
:100486009F4F16C0882311F096E911C0772321F0FB
:100496009EE8872F762F05C0662371F096E8862F93
:1004A60070E060E02AF09A95660F771F881FDAF7EA
:0A04B600880F9695879597F9089531
:1004C000CF93C82F40E050E061E070E081E090E021
:1004D0000E94AE008BB38F709C2F907F892B8BBBBB
:1004E0000E9475032FEF30E782E0215030408040BA
:1004F000E1F700C000008BB3282F2F7030E1C39FBD
:10050000C0011124822B8BBB0E9475038FEF90E7F3
:1005100022E0815090402040E1F700C00000CF91E0
:0205200008953C
:100522000E94F30288F09F5798F0B92F9927B7518C
:10053200B0F0E1F0660F771F881F991F1AF0BA9585
:10054200C9F714C0B13091F00E94D803B1E0089508
:100552000C94D803672F782F8827B85F39F0B93FFA
:10056200CCF3869577956795B395D9F73EF4909538
:0E0572008095709561957F4F8F4F9F4F089534
:10058000CF93C82F41E050E061E070E081E090E05F
:100590000E94AE008BB38F709C2F907F892B8BBBFA
:1005A0000E9475038FE99FE00197F1F700C00000FA
:1005B0008BB3282F2F7030E1C39FC0011124822BF1
:1005C0008BBB0E9475038FE99FE00197F1F700C094
:0605D0000000CF91089528
:1005D60057FD9058440F551F59F05F3F71F04795EE
:1005E600880F97FB991F61F09F3F79F087950895D3
:1005F600121613061406551FF2CF4695F1DF08C0F2
:10060600161617061806991FF1CF8695710561050E
:0406160008940895A7
:10061A00CF93DF93CDB7DEB72B970FB6F894DEBF33
:10062A000FBECDBF4AE0BE016F5F7F4F0E94BC0381
:10063A00CE0101960E94AD032B960FB6F894DEBF49
:0A064A000FBECDBFDF91CF910895E0
:10065400BB27FB015527AA27880F991FAA1FA41798
:1006640010F0A41B83955051B9F7A05DAA3308F08C
:10067400A95DA193009779F7B111B1931192CB01C0
:040684000C949D0332
:1006880047E050E061E070E080E190E00E945D03A7
:100698000E9403040E94E6012FEF81EE94E02150AE
:1006A80080409040E1F700C0000078940E94010467
:0206B800FDCF74
:1006BA0017B897B1892B87B987B1002476956795C2
:1006CA000794769567950794762F602D682B67B9FE
:1006DA0086B1887F86B986B1482B46B9379A08957C
:1006EA0041E050E063E070E081E090E00E94AE00FB
:1006FA008FE99FE00197F1F700C0000040E050E069
:0E070A0063E070E081E090E00E94AE00089590
:10071800092E0394000C11F4882352F0BB0F40F407
:10072800BF2B11F460FF04C06F5F7F4F8F4F9F4F47
:02073800089522
:10073A00DC01FC01672F71917723E1F7329704C03E
:10074A007C916D9370836291AE17BF07C8F30895C9
:10075A00CF93DF93EC018881882331F021960E94A0
:0E076A00C00289918111FBCFDF91CF910895DC
:10077800BB274A3031F4992322F4BDE29095819544
:060788009F4F0C942B03AF
:10078E0081E00E9460028FE19EE40197F1F700C0C4
:04079E0000000895BA
:0E07A2000E9491026894B1110C94D90308953D
:0E07B000E894BB2766277727CB0197F90895B9
:0E07BE0000240A941616170618060906089558
:0E07CC0000240A94121613061406050608955A
:0C07DA0097F99F6780E870E060E00895E8
:0A07E60084B125B190E0922B089534
:0807F0000E9426010C948C0309
:0607F8009FEF80EC089564
:0407FE000C94000057
:04080200369A089585
:04080600339A089584
:00000001FF
