:100000000C942A000C9466000C94B7000C94B70072
:100010000C94B7000C94B7000C94B7000C94B70084
:100020000C94B7000C94B7000C94B7000C94B70074
:100030000C94B7000C94B7000C94B7000C94B70064
:100040000C94B7000C94B7000C94B7000C94B70054
:100050000C94B70011241FBECFE5D8E0DEBFCDBFA2
:0C0060000E94A9000C943400F894FFCF1B
:10006C00672BC9F08130910569F01CF4892B39F0AC
:10007C0008958230910549F0039751F008958FEF60
:10008C008ABB08958FEF87BB08958FEF84BB0895CB
:10009C008FEF81BB08958130910561F01CF4892BA1
:1000AC0039F008958230910539F0039739F00895AD
:1000BC001ABA089517BA089514BA089511BA089582
:1000CC001F920F920FB60F9211242F933F934F93C1
:1000DC005F936F937F938F939F93AF93BF93EF93A4
:1000EC00FF9380E090E00E948C00FF91EF91BF9114
:1000FC00AF919F918F917F916F915F914F913F91B4
:0C010C002F910F900FBE0F901F901895C0
:100118008130910571F01CF4892B39F008958230F3
:10012800910559F0039769F008958BB380958BBBBF
:10013800089588B3809588BB089585B3809585BB5D
:0A014800089582B3809582BB0895EC
:1001520061E070E080E090E00E94360063E070E0D1
:0C01620080E090E00E94B9007894FFCF8C
:04016E000C940000ED
:020172000895EE
:00000001FF
