:100000000C942D000C9406010C9406010C9406012E
:100010000C9406010C9406010C9406010C94060144
:100020000C9406010C9406010C9457000C940601E4
:100030000C9406010C9406010C9406010C94060124
:100040000C9406010C9406010C9406010C94060114
:100050000C94060100600062800011241FBECFE5F1
:10006000D8E0DEBFCDBFE4E5F0E040E017C0B591D9
:10007000A59135912591059107FD0CC0959185912C
:10008000EF01F92FE82F05900D92A217B307D9F7CA
:10009000FE0104C01D92A217B307E1F7E935F4078A
:0E00A00031F70E94D9000C945500F894FFCF60
:1000AE001F920F920FB60F9211242F933F934F93DF
:1000BE005F936F937F938F939F93AF93BF93EF93C2
:1000CE00FF93809160009091610001969093610082
:1000DE0080936000CE9741F482E090E00E94BC00D5
:1000EE001092610010926000FF91EF91BF91AF915D
:1000FE009F918F917F916F915F914F913F912F9132
:0A010E000F900FBE0F901F90189580
:10011800672BC9F08130910569F01CF4892B39F0FF
:1001280008958230910549F0039751F008958FEFB3
:100138008ABB08958FEF87BB08958FEF84BB08951E
:100148008FEF81BB08958130910561F01CF4892BF4
:1001580039F008958230910539F0039739F0089500
:100168001ABA089517BA089514BA089511BA0895D5
:100178008130910571F01CF4892B39F00895823093
:10018800910559F0039769F008958BB380958BBB5F
:10019800089588B3809588BB089585B3809585BBFD
:0A01A800089582B3809582BB08958C
:1001B20061E070E082E090E00E948C008FE70E9494
:1001C200080181E090E00E94FB00789465E070E015
:0A01D20088E090E00E94EE00FFCFED
:1001DC0093B7977B93BF93B7987F93BF93B7892BB4
:0A01EC0083BF83B7682B63BF08953B
:1001F60099B721E030E002C0220F331F8A95E2F75B
:06020600292B29BF089519
:04020C000C9400004E
:040210008CBF089502
:00000001FF
